{
  "_format": "hh-sol-artifact-1",
  "contractName": "OPJEGReceipt",
  "sourceName": "contracts/v3/OPJEGReceipt.sol",
  "abi": [
    {
      "inputs": [
        {
          "internalType": "string",
          "name": "name",
          "type": "string"
        },
        {
          "internalType": "string",
          "name": "symbol",
          "type": "string"
        }
      ],
      "stateMutability": "nonpayable",
      "type": "constructor"
    },
    {
      "anonymous": false,
      "inputs": [
        {
          "indexed": true,
          "internalType": "address",
          "name": "owner",
          "type": "address"
        },
        {
          "indexed": true,
          "internalType": "address",
          "name": "approved",
          "type": "address"
        },
        {
          "indexed": true,
          "internalType": "uint256",
          "name": "tokenId",
          "type": "uint256"
        }
      ],
      "name": "Approval",
      "type": "event"
    },
    {
      "anonymous": false,
      "inputs": [
        {
          "indexed": true,
          "internalType": "address",
          "name": "owner",
          "type": "address"
        },
        {
          "indexed": true,
          "internalType": "address",
          "name": "operator",
          "type": "address"
        },
        {
          "indexed": false,
          "internalType": "bool",
          "name": "approved",
          "type": "bool"
        }
      ],
      "name": "ApprovalForAll",
      "type": "event"
    },
    {
      "anonymous": false,
      "inputs": [
        {
          "indexed": true,
          "internalType": "address",
          "name": "previousOwner",
          "type": "address"
        },
        {
          "indexed": true,
          "internalType": "address",
          "name": "newOwner",
          "type": "address"
        }
      ],
      "name": "OwnershipTransferred",
      "type": "event"
    },
    {
      "anonymous": false,
      "inputs": [
        {
          "indexed": true,
          "internalType": "address",
          "name": "from",
          "type": "address"
        },
        {
          "indexed": true,
          "internalType": "address",
          "name": "to",
          "type": "address"
        },
        {
          "indexed": true,
          "internalType": "uint256",
          "name": "tokenId",
          "type": "uint256"
        }
      ],
      "name": "Transfer",
      "type": "event"
    },
    {
      "anonymous": false,
      "inputs": [
        {
          "indexed": false,
          "internalType": "address",
          "name": "from",
          "type": "address"
        },
        {
          "indexed": false,
          "internalType": "address",
          "name": "to",
          "type": "address"
        },
        {
          "indexed": false,
          "internalType": "uint256",
          "name": "tokenId",
          "type": "uint256"
        }
      ],
      "name": "notTransfer",
      "type": "event"
    },
    {
      "inputs": [
        {
          "internalType": "address",
          "name": "to",
          "type": "address"
        },
        {
          "internalType": "uint256",
          "name": "tokenId",
          "type": "uint256"
        }
      ],
      "name": "approve",
      "outputs": [],
      "stateMutability": "nonpayable",
      "type": "function"
    },
    {
      "inputs": [
        {
          "internalType": "address",
          "name": "owner",
          "type": "address"
        }
      ],
      "name": "balanceOf",
      "outputs": [
        {
          "internalType": "uint256",
          "name": "",
          "type": "uint256"
        }
      ],
      "stateMutability": "view",
      "type": "function"
    },
    {
      "inputs": [
        {
          "internalType": "uint256",
          "name": "tokenId",
          "type": "uint256"
        }
      ],
      "name": "burn",
      "outputs": [],
      "stateMutability": "nonpayable",
      "type": "function"
    },
    {
      "inputs": [
        {
          "internalType": "uint256",
          "name": "tokenId",
          "type": "uint256"
        }
      ],
      "name": "getApproved",
      "outputs": [
        {
          "internalType": "address",
          "name": "",
          "type": "address"
        }
      ],
      "stateMutability": "view",
      "type": "function"
    },
    {
      "inputs": [
        {
          "internalType": "address",
          "name": "owner",
          "type": "address"
        },
        {
          "internalType": "address",
          "name": "operator",
          "type": "address"
        }
      ],
      "name": "isApprovedForAll",
      "outputs": [
        {
          "internalType": "bool",
          "name": "",
          "type": "bool"
        }
      ],
      "stateMutability": "view",
      "type": "function"
    },
    {
      "inputs": [
        {
          "internalType": "address",
          "name": "wallet",
          "type": "address"
        },
        {
          "internalType": "uint256",
          "name": "tokenId",
          "type": "uint256"
        }
      ],
      "name": "mintTo",
      "outputs": [],
      "stateMutability": "nonpayable",
      "type": "function"
    },
    {
      "inputs": [],
      "name": "name",
      "outputs": [
        {
          "internalType": "string",
          "name": "",
          "type": "string"
        }
      ],
      "stateMutability": "view",
      "type": "function"
    },
    {
      "inputs": [],
      "name": "owner",
      "outputs": [
        {
          "internalType": "address",
          "name": "",
          "type": "address"
        }
      ],
      "stateMutability": "view",
      "type": "function"
    },
    {
      "inputs": [
        {
          "internalType": "uint256",
          "name": "tokenId",
          "type": "uint256"
        }
      ],
      "name": "ownerOf",
      "outputs": [
        {
          "internalType": "address",
          "name": "",
          "type": "address"
        }
      ],
      "stateMutability": "view",
      "type": "function"
    },
    {
      "inputs": [],
      "name": "renounceOwnership",
      "outputs": [],
      "stateMutability": "nonpayable",
      "type": "function"
    },
    {
      "inputs": [
        {
          "internalType": "address",
          "name": "from",
          "type": "address"
        },
        {
          "internalType": "address",
          "name": "to",
          "type": "address"
        },
        {
          "internalType": "uint256",
          "name": "tokenId",
          "type": "uint256"
        }
      ],
      "name": "safeTransferFrom",
      "outputs": [],
      "stateMutability": "nonpayable",
      "type": "function"
    },
    {
      "inputs": [
        {
          "internalType": "address",
          "name": "from",
          "type": "address"
        },
        {
          "internalType": "address",
          "name": "to",
          "type": "address"
        },
        {
          "internalType": "uint256",
          "name": "tokenId",
          "type": "uint256"
        },
        {
          "internalType": "bytes",
          "name": "_data",
          "type": "bytes"
        }
      ],
      "name": "safeTransferFrom",
      "outputs": [],
      "stateMutability": "nonpayable",
      "type": "function"
    },
    {
      "inputs": [
        {
          "internalType": "address",
          "name": "operator",
          "type": "address"
        },
        {
          "internalType": "bool",
          "name": "approved",
          "type": "bool"
        }
      ],
      "name": "setApprovalForAll",
      "outputs": [],
      "stateMutability": "nonpayable",
      "type": "function"
    },
    {
      "inputs": [
        {
          "internalType": "bytes4",
          "name": "interfaceId",
          "type": "bytes4"
        }
      ],
      "name": "supportsInterface",
      "outputs": [
        {
          "internalType": "bool",
          "name": "",
          "type": "bool"
        }
      ],
      "stateMutability": "view",
      "type": "function"
    },
    {
      "inputs": [],
      "name": "symbol",
      "outputs": [
        {
          "internalType": "string",
          "name": "",
          "type": "string"
        }
      ],
      "stateMutability": "view",
      "type": "function"
    },
    {
      "inputs": [
        {
          "internalType": "uint256",
          "name": "tokenId",
          "type": "uint256"
        }
      ],
      "name": "tokenURI",
      "outputs": [
        {
          "internalType": "string",
          "name": "",
          "type": "string"
        }
      ],
      "stateMutability": "view",
      "type": "function"
    },
    {
      "inputs": [
        {
          "internalType": "address",
          "name": "from",
          "type": "address"
        },
        {
          "internalType": "address",
          "name": "to",
          "type": "address"
        },
        {
          "internalType": "uint256",
          "name": "tokenId",
          "type": "uint256"
        }
      ],
      "name": "transferFrom",
      "outputs": [],
      "stateMutability": "nonpayable",
      "type": "function"
    },
    {
      "inputs": [
        {
          "internalType": "address",
          "name": "newOwner",
          "type": "address"
        }
      ],
      "name": "transferOwnership",
      "outputs": [],
      "stateMutability": "nonpayable",
      "type": "function"
    }
  ],
  "bytecode": "0x60806040523480156200001157600080fd5b50604051620017ef380380620017ef833981016040819052620000349162000251565b8151829082906200004d906000906020850190620000de565b50805162000063906001906020840190620000de565b505050620000806200007a6200008860201b60201c565b6200008c565b5050620002f7565b3390565b600680546001600160a01b038381166001600160a01b0319831681179093556040519116919082907f8be0079c531659141344cd1fd0a4f28419497f9722a3daafe3b4186f6b6457e090600090a35050565b828054620000ec90620002bb565b90600052602060002090601f0160209004810192826200011057600085556200015b565b82601f106200012b57805160ff19168380011785556200015b565b828001600101855582156200015b579182015b828111156200015b5782518255916020019190600101906200013e565b50620001699291506200016d565b5090565b5b808211156200016957600081556001016200016e565b634e487b7160e01b600052604160045260246000fd5b600082601f830112620001ac57600080fd5b81516001600160401b0380821115620001c957620001c962000184565b604051601f8301601f19908116603f01168101908282118183101715620001f457620001f462000184565b816040528381526020925086838588010111156200021157600080fd5b600091505b8382101562000235578582018301518183018401529082019062000216565b83821115620002475760008385830101525b9695505050505050565b600080604083850312156200026557600080fd5b82516001600160401b03808211156200027d57600080fd5b6200028b868387016200019a565b93506020850151915080821115620002a257600080fd5b50620002b1858286016200019a565b9150509250929050565b600181811c90821680620002d057607f821691505b602082108103620002f157634e487b7160e01b600052602260045260246000fd5b50919050565b6114e880620003076000396000f3fe608060405234801561001057600080fd5b50600436106101165760003560e01c806370a08231116100a2578063a22cb46511610071578063a22cb46514610239578063b88d4fde1461024c578063c87b56dd1461025f578063e985e9c514610272578063f2fde38b146102ae57600080fd5b806370a08231146101f7578063715018a6146102185780638da5cb5b1461022057806395d89b411461023157600080fd5b806323b872dd116100e957806323b872dd1461019857806342842e0e146101ab57806342966c68146101be578063449a52f8146101d15780636352211e146101e457600080fd5b806301ffc9a71461011b57806306fdde0314610143578063081812fc14610158578063095ea7b314610183575b600080fd5b61012e610129366004610fbf565b6102c1565b60405190151581526020015b60405180910390f35b61014b610313565b60405161013a919061103b565b61016b61016636600461104e565b6103a5565b6040516001600160a01b03909116815260200161013a565b610196610191366004611083565b61043f565b005b6101966101a63660046110ad565b610554565b6101966101b93660046110ad565b610585565b6101966101cc36600461104e565b6105a0565b6101966101df366004611083565b6105d6565b61016b6101f236600461104e565b61060e565b61020a6102053660046110e9565b610685565b60405190815260200161013a565b61019661070c565b6006546001600160a01b031661016b565b61014b610742565b610196610247366004611104565b610751565b61019661025a366004611156565b61075c565b61014b61026d36600461104e565b610794565b61012e610280366004611232565b6001600160a01b03918216600090815260056020908152604080832093909416825291909152205460ff1690565b6101966102bc3660046110e9565b6107e7565b60006001600160e01b031982166380ac58cd60e01b14806102f257506001600160e01b03198216635b5e139f60e01b145b8061030d57506301ffc9a760e01b6001600160e01b03198316145b92915050565b60606000805461032290611265565b80601f016020809104026020016040519081016040528092919081815260200182805461034e90611265565b801561039b5780601f106103705761010080835404028352916020019161039b565b820191906000526020600020905b81548152906001019060200180831161037e57829003601f168201915b5050505050905090565b6000818152600260205260408120546001600160a01b03166104235760405162461bcd60e51b815260206004820152602c60248201527f4552433732313a20617070726f76656420717565727920666f72206e6f6e657860448201526b34b9ba32b73a103a37b5b2b760a11b60648201526084015b60405180910390fd5b506000908152600460205260409020546001600160a01b031690565b600061044a8261060e565b9050806001600160a01b0316836001600160a01b0316036104b75760405162461bcd60e51b815260206004820152602160248201527f4552433732313a20617070726f76616c20746f2063757272656e74206f776e656044820152603960f91b606482015260840161041a565b336001600160a01b03821614806104d357506104d38133610280565b6105455760405162461bcd60e51b815260206004820152603860248201527f4552433732313a20617070726f76652063616c6c6572206973206e6f74206f7760448201527f6e6572206e6f7220617070726f76656420666f7220616c6c0000000000000000606482015260840161041a565b61054f838361087f565b505050565b61055e33826108ed565b61057a5760405162461bcd60e51b815260040161041a9061129f565b61054f8383836109e4565b61054f8383836040518060200160405280600081525061075c565b6006546001600160a01b031633146105ca5760405162461bcd60e51b815260040161041a906112f0565b6105d381610a77565b50565b6006546001600160a01b031633146106005760405162461bcd60e51b815260040161041a906112f0565b61060a8282610b12565b5050565b6000818152600260205260408120546001600160a01b03168061030d5760405162461bcd60e51b815260206004820152602960248201527f4552433732313a206f776e657220717565727920666f72206e6f6e657869737460448201526832b73a103a37b5b2b760b91b606482015260840161041a565b60006001600160a01b0382166106f05760405162461bcd60e51b815260206004820152602a60248201527f4552433732313a2062616c616e636520717565727920666f7220746865207a65604482015269726f206164647265737360b01b606482015260840161041a565b506001600160a01b031660009081526003602052604090205490565b6006546001600160a01b031633146107365760405162461bcd60e51b815260040161041a906112f0565b6107406000610c54565b565b60606001805461032290611265565b61060a338383610ca6565b61076633836108ed565b6107825760405162461bcd60e51b815260040161041a9061129f565b61078e84848484610d74565b50505050565b6000818152600260205260409020546060906001600160a01b03166107b857600080fd5b6107c182610da7565b6040516020016107d19190611325565b6040516020818303038152906040529050919050565b6006546001600160a01b031633146108115760405162461bcd60e51b815260040161041a906112f0565b6001600160a01b0381166108765760405162461bcd60e51b815260206004820152602660248201527f4f776e61626c653a206e6577206f776e657220697320746865207a65726f206160448201526564647265737360d01b606482015260840161041a565b6105d381610c54565b600081815260046020526040902080546001600160a01b0319166001600160a01b03841690811790915581906108b48261060e565b6001600160a01b03167f8c5be1e5ebec7d5bd14f71427d1e84f3dd0314c0f7b2291e5b200ac8c7c3b92560405160405180910390a45050565b6000818152600260205260408120546001600160a01b03166109665760405162461bcd60e51b815260206004820152602c60248201527f4552433732313a206f70657261746f7220717565727920666f72206e6f6e657860448201526b34b9ba32b73a103a37b5b2b760a11b606482015260840161041a565b60006109718361060e565b9050806001600160a01b0316846001600160a01b031614806109b857506001600160a01b0380821660009081526005602090815260408083209388168352929052205460ff165b806109dc5750836001600160a01b03166109d1846103a5565b6001600160a01b0316145b949350505050565b604080516001600160a01b038086168252841660208201529081018290527ff44e73e8d6e0b6e8d92ef2c4490654aaed247d70cecea1cc2d64e872404be6d69060600160405180910390a160405162461bcd60e51b815260206004820152601d60248201527f4f504a4547526563656970743a206e6f6e207472616e66657261626c65000000604482015260640161041a565b6000610a828261060e565b9050610a8f60008361087f565b6001600160a01b0381166000908152600360205260408120805460019290610ab890849061136a565b909155505060008281526002602052604080822080546001600160a01b0319169055518391906001600160a01b038416907fddf252ad1be2c89b69c2b068fc378daa952ba7f163c4a11628f55a4df523b3ef908390a45050565b6001600160a01b038216610b685760405162461bcd60e51b815260206004820181905260248201527f4552433732313a206d696e7420746f20746865207a65726f2061646472657373604482015260640161041a565b6000818152600260205260409020546001600160a01b031615610bcd5760405162461bcd60e51b815260206004820152601c60248201527f4552433732313a20746f6b656e20616c7265616479206d696e74656400000000604482015260640161041a565b6001600160a01b0382166000908152600360205260408120805460019290610bf6908490611381565b909155505060008181526002602052604080822080546001600160a01b0319166001600160a01b03861690811790915590518392907fddf252ad1be2c89b69c2b068fc378daa952ba7f163c4a11628f55a4df523b3ef908290a45050565b600680546001600160a01b038381166001600160a01b0319831681179093556040519116919082907f8be0079c531659141344cd1fd0a4f28419497f9722a3daafe3b4186f6b6457e090600090a35050565b816001600160a01b0316836001600160a01b031603610d075760405162461bcd60e51b815260206004820152601960248201527f4552433732313a20617070726f766520746f2063616c6c657200000000000000604482015260640161041a565b6001600160a01b03838116600081815260056020908152604080832094871680845294825291829020805460ff191686151590811790915591519182527f17307eab39ab6107e8899845ad3d59bd9653f200f220920489ca2b5937696c31910160405180910390a3505050565b610d7f8484846109e4565b610d8b84848484610ea8565b61078e5760405162461bcd60e51b815260040161041a90611399565b606081600003610dce5750506040805180820190915260018152600360fc1b602082015290565b8160005b8115610df85780610de2816113eb565b9150610df19050600a8361141a565b9150610dd2565b60008167ffffffffffffffff811115610e1357610e13611140565b6040519080825280601f01601f191660200182016040528015610e3d576020820181803683370190505b5090505b84156109dc57610e5260018361136a565b9150610e5f600a8661142e565b610e6a906030611381565b60f81b818381518110610e7f57610e7f611442565b60200101906001600160f81b031916908160001a905350610ea1600a8661141a565b9450610e41565b60006001600160a01b0384163b15610f9e57604051630a85bd0160e11b81526001600160a01b0385169063150b7a0290610eec903390899088908890600401611458565b6020604051808303816000875af1925050508015610f27575060408051601f3d908101601f19168201909252610f2491810190611495565b60015b610f84573d808015610f55576040519150601f19603f3d011682016040523d82523d6000602084013e610f5a565b606091505b508051600003610f7c5760405162461bcd60e51b815260040161041a90611399565b805181602001fd5b6001600160e01b031916630a85bd0160e11b1490506109dc565b506001949350505050565b6001600160e01b0319811681146105d357600080fd5b600060208284031215610fd157600080fd5b8135610fdc81610fa9565b9392505050565b60005b83811015610ffe578181015183820152602001610fe6565b8381111561078e5750506000910152565b60008151808452611027816020860160208601610fe3565b601f01601f19169290920160200192915050565b602081526000610fdc602083018461100f565b60006020828403121561106057600080fd5b5035919050565b80356001600160a01b038116811461107e57600080fd5b919050565b6000806040838503121561109657600080fd5b61109f83611067565b946020939093013593505050565b6000806000606084860312156110c257600080fd5b6110cb84611067565b92506110d960208501611067565b9150604084013590509250925092565b6000602082840312156110fb57600080fd5b610fdc82611067565b6000806040838503121561111757600080fd5b61112083611067565b91506020830135801515811461113557600080fd5b809150509250929050565b634e487b7160e01b600052604160045260246000fd5b6000806000806080858703121561116c57600080fd5b61117585611067565b935061118360208601611067565b925060408501359150606085013567ffffffffffffffff808211156111a757600080fd5b818701915087601f8301126111bb57600080fd5b8135818111156111cd576111cd611140565b604051601f8201601f19908116603f011681019083821181831017156111f5576111f5611140565b816040528281528a602084870101111561120e57600080fd5b82602086016020830137600060208483010152809550505050505092959194509250565b6000806040838503121561124557600080fd5b61124e83611067565b915061125c60208401611067565b90509250929050565b600181811c9082168061127957607f821691505b60208210810361129957634e487b7160e01b600052602260045260246000fd5b50919050565b60208082526031908201527f4552433732313a207472616e736665722063616c6c6572206973206e6f74206f6040820152701ddb995c881b9bdc88185c1c1c9bdd9959607a1b606082015260800190565b6020808252818101527f4f776e61626c653a2063616c6c6572206973206e6f7420746865206f776e6572604082015260600190565b6603cb7b6379016960cd1b815260008251611347816007850160208701610fe3565b9190910160070192915050565b634e487b7160e01b600052601160045260246000fd5b60008282101561137c5761137c611354565b500390565b6000821982111561139457611394611354565b500190565b60208082526032908201527f4552433732313a207472616e7366657220746f206e6f6e20455243373231526560408201527131b2b4bb32b91034b6b83632b6b2b73a32b960711b606082015260800190565b6000600182016113fd576113fd611354565b5060010190565b634e487b7160e01b600052601260045260246000fd5b60008261142957611429611404565b500490565b60008261143d5761143d611404565b500690565b634e487b7160e01b600052603260045260246000fd5b6001600160a01b038581168252841660208201526040810183905260806060820181905260009061148b9083018461100f565b9695505050505050565b6000602082840312156114a757600080fd5b8151610fdc81610fa956fea26469706673582212206c1a4a7b205f55166311bc6e54100bfffdfc51cf99362004338a0e6b6871b9bc64736f6c634300080d0033",
  "linkReferences": {},
  "deployedLinkReferences": {}
}